{
  "address": "0xCE7bA314081dd19e56d166d8640afcB17Abf75Eb",
  "abi": [
    {
      "inputs": [
        {
          "internalType": "address",
          "name": "vrfCoordinatorV2",
          "type": "address"
        },
        {
          "internalType": "bytes32",
          "name": "keyHash",
          "type": "bytes32"
        },
        {
          "internalType": "uint64",
          "name": "subscriptionId",
          "type": "uint64"
        },
        {
          "internalType": "uint32",
          "name": "gasLimit",
          "type": "uint32"
        },
        {
          "internalType": "uint256",
          "name": "entranceFee",
          "type": "uint256"
        },
        {
          "internalType": "uint256",
          "name": "interval",
          "type": "uint256"
        }
      ],
      "stateMutability": "nonpayable",
      "type": "constructor"
    },
    {
      "inputs": [
        {
          "internalType": "address",
          "name": "have",
          "type": "address"
        },
        {
          "internalType": "address",
          "name": "want",
          "type": "address"
        }
      ],
      "name": "OnlyCoordinatorCanFulfill",
      "type": "error"
    },
    {
      "inputs": [],
      "name": "Raffle__NotEnoughETHEntered",
      "type": "error"
    },
    {
      "inputs": [],
      "name": "Raffle__NotOpen",
      "type": "error"
    },
    {
      "inputs": [],
      "name": "Raffle__TransferFailed",
      "type": "error"
    },
    {
      "inputs": [
        {
          "internalType": "uint256",
          "name": "currentBalance",
          "type": "uint256"
        },
        {
          "internalType": "uint256",
          "name": "numPlayers",
          "type": "uint256"
        },
        {
          "internalType": "uint256",
          "name": "raffleState",
          "type": "uint256"
        }
      ],
      "name": "Raffle__UpKeepNotNeeded",
      "type": "error"
    },
    {
      "anonymous": false,
      "inputs": [
        {
          "indexed": true,
          "internalType": "address",
          "name": "player",
          "type": "address"
        }
      ],
      "name": "RaffleEnter",
      "type": "event"
    },
    {
      "anonymous": false,
      "inputs": [
        {
          "indexed": true,
          "internalType": "uint256",
          "name": "requestId",
          "type": "uint256"
        }
      ],
      "name": "RequestedRaffleWinner",
      "type": "event"
    },
    {
      "anonymous": false,
      "inputs": [
        {
          "indexed": true,
          "internalType": "address",
          "name": "winner",
          "type": "address"
        }
      ],
      "name": "WinnerPicked",
      "type": "event"
    },
    {
      "inputs": [
        {
          "internalType": "bytes",
          "name": "",
          "type": "bytes"
        }
      ],
      "name": "checkUpkeep",
      "outputs": [
        {
          "internalType": "bool",
          "name": "upkeepNeeded",
          "type": "bool"
        },
        {
          "internalType": "bytes",
          "name": "",
          "type": "bytes"
        }
      ],
      "stateMutability": "nonpayable",
      "type": "function"
    },
    {
      "inputs": [],
      "name": "enterRaffle",
      "outputs": [],
      "stateMutability": "payable",
      "type": "function"
    },
    {
      "inputs": [],
      "name": "getEntranceFee",
      "outputs": [
        {
          "internalType": "uint256",
          "name": "",
          "type": "uint256"
        }
      ],
      "stateMutability": "view",
      "type": "function"
    },
    {
      "inputs": [],
      "name": "getInterval",
      "outputs": [
        {
          "internalType": "uint256",
          "name": "",
          "type": "uint256"
        }
      ],
      "stateMutability": "view",
      "type": "function"
    },
    {
      "inputs": [],
      "name": "getLastTimeStamp",
      "outputs": [
        {
          "internalType": "uint256",
          "name": "",
          "type": "uint256"
        }
      ],
      "stateMutability": "view",
      "type": "function"
    },
    {
      "inputs": [],
      "name": "getNumWords",
      "outputs": [
        {
          "internalType": "uint256",
          "name": "",
          "type": "uint256"
        }
      ],
      "stateMutability": "pure",
      "type": "function"
    },
    {
      "inputs": [],
      "name": "getNumberOfPlayers",
      "outputs": [
        {
          "internalType": "uint256",
          "name": "",
          "type": "uint256"
        }
      ],
      "stateMutability": "view",
      "type": "function"
    },
    {
      "inputs": [
        {
          "internalType": "uint256",
          "name": "index",
          "type": "uint256"
        }
      ],
      "name": "getPlayer",
      "outputs": [
        {
          "internalType": "address",
          "name": "",
          "type": "address"
        }
      ],
      "stateMutability": "view",
      "type": "function"
    },
    {
      "inputs": [],
      "name": "getRaffleState",
      "outputs": [
        {
          "internalType": "enum Raffle.RaffleState",
          "name": "",
          "type": "uint8"
        }
      ],
      "stateMutability": "view",
      "type": "function"
    },
    {
      "inputs": [],
      "name": "getRecentWinner",
      "outputs": [
        {
          "internalType": "address",
          "name": "",
          "type": "address"
        }
      ],
      "stateMutability": "view",
      "type": "function"
    },
    {
      "inputs": [],
      "name": "getRequestConfirmations",
      "outputs": [
        {
          "internalType": "uint256",
          "name": "",
          "type": "uint256"
        }
      ],
      "stateMutability": "pure",
      "type": "function"
    },
    {
      "inputs": [
        {
          "internalType": "bytes",
          "name": "",
          "type": "bytes"
        }
      ],
      "name": "performUpkeep",
      "outputs": [],
      "stateMutability": "nonpayable",
      "type": "function"
    },
    {
      "inputs": [
        {
          "internalType": "uint256",
          "name": "requestId",
          "type": "uint256"
        },
        {
          "internalType": "uint256[]",
          "name": "randomWords",
          "type": "uint256[]"
        }
      ],
      "name": "rawFulfillRandomWords",
      "outputs": [],
      "stateMutability": "nonpayable",
      "type": "function"
    }
  ],
  "transactionHash": "0x89b7238e814b72926e82edb6453f556f0046f611d2a5c8ad9e29e95eef52f3bc",
  "args": [
    "0x2ca8e0c643bde4c2e08ab1fa0da3401adad7734d",
    "0x79d3d8832d904592c0bf9818b621522c988bb8b0c05cdc3b15aea1b6e8db0c15",
    "3531",
    "500000",
    "100000000000000000",
    "30"
  ],
  "numDeployments": 6,
  "solcInputHash": "5665533a40663eef8bf42d672c435dd5",
  "bytecode": "0x6101406040523480156200001257600080fd5b5060405162001806380380620018068339818101604052810190620000389190620002a0565b858073ffffffffffffffffffffffffffffffffffffffff1660808173ffffffffffffffffffffffffffffffffffffffff1681525050508160a081815250508460e081815250508263ffffffff166101008163ffffffff168152505085600260006101000a81548173ffffffffffffffffffffffffffffffffffffffff021916908373ffffffffffffffffffffffffffffffffffffffff1602179055506000600360146101000a81548160ff02191690836001811115620000fd57620000fc6200033c565b5b0217905550806101208181525050426001819055508367ffffffffffffffff1660c08167ffffffffffffffff16815250505050505050506200036b565b600080fd5b600073ffffffffffffffffffffffffffffffffffffffff82169050919050565b60006200016c826200013f565b9050919050565b6200017e816200015f565b81146200018a57600080fd5b50565b6000815190506200019e8162000173565b92915050565b6000819050919050565b620001b981620001a4565b8114620001c557600080fd5b50565b600081519050620001d981620001ae565b92915050565b600067ffffffffffffffff82169050919050565b620001fe81620001df565b81146200020a57600080fd5b50565b6000815190506200021e81620001f3565b92915050565b600063ffffffff82169050919050565b6200023f8162000224565b81146200024b57600080fd5b50565b6000815190506200025f8162000234565b92915050565b6000819050919050565b6200027a8162000265565b81146200028657600080fd5b50565b6000815190506200029a816200026f565b92915050565b60008060008060008060c08789031215620002c057620002bf6200013a565b5b6000620002d089828a016200018d565b9650506020620002e389828a01620001c8565b9550506040620002f689828a016200020d565b94505060606200030989828a016200024e565b93505060806200031c89828a0162000289565b92505060a06200032f89828a0162000289565b9150509295509295509295565b7f4e487b7100000000000000000000000000000000000000000000000000000000600052602160045260246000fd5b60805160a05160c05160e0516101005161012051611436620003d0600039600081816107e0015261084e0152600061069e0152600061065a0152600061067b0152600081816102fa01526103f7015260008181610337015261038b01526114366000f3fe6080604052600436106100c25760003560e01c806353a2c19a1161007f57806391ad27b41161005957806391ad27b414610238578063c1c244e814610263578063e55ae4e81461028e578063fd6673f5146102cb576100c2565b806353a2c19a146101a45780635f1b0fd8146101cf5780636e04ff0d146101fa576100c2565b806309bc33a7146100c7578063115cbaf5146100f25780631fe543e31461011d5780632cfcc539146101465780634585e33b14610150578063473f1ddc14610179575b600080fd5b3480156100d357600080fd5b506100dc6102f6565b6040516100e99190610bc0565b60405180910390f35b3480156100fe57600080fd5b5061010761031e565b6040516101149190610c52565b60405180910390f35b34801561012957600080fd5b50610144600480360381019061013f9190610e06565b610335565b005b61014e6103f5565b005b34801561015c57600080fd5b5061017760048036038101906101729190610ebd565b610564565b005b34801561018557600080fd5b5061018e610757565b60405161019b9190610f4b565b60405180910390f35b3480156101b057600080fd5b506101b9610781565b6040516101c69190610bc0565b60405180910390f35b3480156101db57600080fd5b506101e4610790565b6040516101f19190610bc0565b60405180910390f35b34801561020657600080fd5b50610221600480360381019061021c919061101b565b61079d565b60405161022f9291906110fe565b60405180910390f35b34801561024457600080fd5b5061024d61084a565b60405161025a9190610bc0565b60405180910390f35b34801561026f57600080fd5b50610278610872565b6040516102859190610bc0565b60405180910390f35b34801561029a57600080fd5b506102b560048036038101906102b0919061112e565b61087c565b6040516102c29190610f4b565b60405180910390f35b3480156102d757600080fd5b506102e06108c3565b6040516102ed9190610bc0565b60405180910390f35b60007f0000000000000000000000000000000000000000000000000000000000000000905090565b6000600360149054906101000a900460ff16905090565b7f000000000000000000000000000000000000000000000000000000000000000073ffffffffffffffffffffffffffffffffffffffff163373ffffffffffffffffffffffffffffffffffffffff16146103e757337f00000000000000000000000000000000000000000000000000000000000000006040517f1cf993f40000000000000000000000000000000000000000000000000000000081526004016103de92919061115b565b60405180910390fd5b6103f182826108cf565b5050565b7f000000000000000000000000000000000000000000000000000000000000000034101561044f576040517fbd4e069500000000000000000000000000000000000000000000000000000000815260040160405180910390fd5b6000600181111561046357610462610bdb565b5b600360149054906101000a900460ff16600181111561048557610484610bdb565b5b146104bc576040517f1425571c00000000000000000000000000000000000000000000000000000000815260040160405180910390fd5b6000339080600181540180825580915050600190039060005260206000200160009091909190916101000a81548173ffffffffffffffffffffffffffffffffffffffff021916908373ffffffffffffffffffffffffffffffffffffffff1602179055503373ffffffffffffffffffffffffffffffffffffffff167f0805e1d667bddb8a95f0f09880cf94f403fb596ce79928d9f29b74203ba284d460405160405180910390a2565b600061057e6040518060200160405280600081525061079d565b509050806105ed5747600080549050600360149054906101000a900460ff1660018111156105af576105ae610bdb565b5b6040517f3a8d60860000000000000000000000000000000000000000000000000000000081526004016105e493929190611184565b60405180910390fd5b6001600360146101000a81548160ff0219169083600181111561061357610612610bdb565b5b02179055506000600260009054906101000a900473ffffffffffffffffffffffffffffffffffffffff1673ffffffffffffffffffffffffffffffffffffffff16635d3b1d307f00000000000000000000000000000000000000000000000000000000000000007f000000000000000000000000000000000000000000000000000000000000000060037f000000000000000000000000000000000000000000000000000000000000000060036040518663ffffffff1660e01b81526004016106df959493929190611233565b6020604051808303816000875af11580156106fe573d6000803e3d6000fd5b505050506040513d601f19601f82011682018060405250810190610722919061129b565b9050807fcd6e45c8998311cab7e9d4385596cac867e20a0587194b954fa3a731c93ce78b60405160405180910390a250505050565b6000600360009054906101000a900473ffffffffffffffffffffffffffffffffffffffff16905090565b6000600363ffffffff16905090565b6000600361ffff16905090565b600060606000600360149054906101000a900460ff1660018111156107c5576107c4610bdb565b5b600060018111156107d9576107d8610bdb565b5b14905060007f00000000000000000000000000000000000000000000000000000000000000006001544261080d91906112f7565b1190506000806000805490501190506000804711905083801561082d5750825b80156108365750805b801561083f5750815b955050505050915091565b60007f0000000000000000000000000000000000000000000000000000000000000000905090565b6000600154905090565b60008082815481106108915761089061132b565b5b9060005260206000200160009054906101000a900473ffffffffffffffffffffffffffffffffffffffff169050919050565b60008080549050905090565b60008080549050826000815181106108ea576108e961132b565b5b60200260200101516108fc9190611389565b905060008082815481106109135761091261132b565b5b9060005260206000200160009054906101000a900473ffffffffffffffffffffffffffffffffffffffff16905080600360006101000a81548173ffffffffffffffffffffffffffffffffffffffff021916908373ffffffffffffffffffffffffffffffffffffffff1602179055506000600360146101000a81548160ff021916908360018111156109a7576109a6610bdb565b5b0217905550600067ffffffffffffffff8111156109c7576109c6610cc3565b5b6040519080825280602002602001820160405280156109f55781602001602082028036833780820191505090505b5060009080519060200190610a0b929190610b00565b504260018190555060008173ffffffffffffffffffffffffffffffffffffffff1647604051610a39906113eb565b60006040518083038185875af1925050503d8060008114610a76576040519150601f19603f3d011682016040523d82523d6000602084013e610a7b565b606091505b5050905080610ab6576040517fa1d04b3900000000000000000000000000000000000000000000000000000000815260040160405180910390fd5b8173ffffffffffffffffffffffffffffffffffffffff167f5b690ec4a06fe979403046eaeea5b3ce38524683c3001f662c8b5a829632f7df60405160405180910390a25050505050565b828054828255906000526020600020908101928215610b79579160200282015b82811115610b785782518260006101000a81548173ffffffffffffffffffffffffffffffffffffffff021916908373ffffffffffffffffffffffffffffffffffffffff16021790555091602001919060010190610b20565b5b509050610b869190610b8a565b5090565b5b80821115610ba3576000816000905550600101610b8b565b5090565b6000819050919050565b610bba81610ba7565b82525050565b6000602082019050610bd56000830184610bb1565b92915050565b7f4e487b7100000000000000000000000000000000000000000000000000000000600052602160045260246000fd5b60028110610c1b57610c1a610bdb565b5b50565b6000819050610c2c82610c0a565b919050565b6000610c3c82610c1e565b9050919050565b610c4c81610c31565b82525050565b6000602082019050610c676000830184610c43565b92915050565b6000604051905090565b600080fd5b600080fd5b610c8a81610ba7565b8114610c9557600080fd5b50565b600081359050610ca781610c81565b92915050565b600080fd5b6000601f19601f8301169050919050565b7f4e487b7100000000000000000000000000000000000000000000000000000000600052604160045260246000fd5b610cfb82610cb2565b810181811067ffffffffffffffff82111715610d1a57610d19610cc3565b5b80604052505050565b6000610d2d610c6d565b9050610d398282610cf2565b919050565b600067ffffffffffffffff821115610d5957610d58610cc3565b5b602082029050602081019050919050565b600080fd5b6000610d82610d7d84610d3e565b610d23565b90508083825260208201905060208402830185811115610da557610da4610d6a565b5b835b81811015610dce5780610dba8882610c98565b845260208401935050602081019050610da7565b5050509392505050565b600082601f830112610ded57610dec610cad565b5b8135610dfd848260208601610d6f565b91505092915050565b60008060408385031215610e1d57610e1c610c77565b5b6000610e2b85828601610c98565b925050602083013567ffffffffffffffff811115610e4c57610e4b610c7c565b5b610e5885828601610dd8565b9150509250929050565b600080fd5b60008083601f840112610e7d57610e7c610cad565b5b8235905067ffffffffffffffff811115610e9a57610e99610e62565b5b602083019150836001820283011115610eb657610eb5610d6a565b5b9250929050565b60008060208385031215610ed457610ed3610c77565b5b600083013567ffffffffffffffff811115610ef257610ef1610c7c565b5b610efe85828601610e67565b92509250509250929050565b600073ffffffffffffffffffffffffffffffffffffffff82169050919050565b6000610f3582610f0a565b9050919050565b610f4581610f2a565b82525050565b6000602082019050610f606000830184610f3c565b92915050565b600080fd5b600067ffffffffffffffff821115610f8657610f85610cc3565b5b610f8f82610cb2565b9050602081019050919050565b82818337600083830152505050565b6000610fbe610fb984610f6b565b610d23565b905082815260208101848484011115610fda57610fd9610f66565b5b610fe5848285610f9c565b509392505050565b600082601f83011261100257611001610cad565b5b8135611012848260208601610fab565b91505092915050565b60006020828403121561103157611030610c77565b5b600082013567ffffffffffffffff81111561104f5761104e610c7c565b5b61105b84828501610fed565b91505092915050565b60008115159050919050565b61107981611064565b82525050565b600081519050919050565b600082825260208201905092915050565b60005b838110156110b957808201518184015260208101905061109e565b60008484015250505050565b60006110d08261107f565b6110da818561108a565b93506110ea81856020860161109b565b6110f381610cb2565b840191505092915050565b60006040820190506111136000830185611070565b818103602083015261112581846110c5565b90509392505050565b60006020828403121561114457611143610c77565b5b600061115284828501610c98565b91505092915050565b60006040820190506111706000830185610f3c565b61117d6020830184610f3c565b9392505050565b60006060820190506111996000830186610bb1565b6111a66020830185610bb1565b6111b36040830184610bb1565b949350505050565b6000819050919050565b6111ce816111bb565b82525050565b600067ffffffffffffffff82169050919050565b6111f1816111d4565b82525050565b600061ffff82169050919050565b61120e816111f7565b82525050565b600063ffffffff82169050919050565b61122d81611214565b82525050565b600060a08201905061124860008301886111c5565b61125560208301876111e8565b6112626040830186611205565b61126f6060830185611224565b61127c6080830184611224565b9695505050505050565b60008151905061129581610c81565b92915050565b6000602082840312156112b1576112b0610c77565b5b60006112bf84828501611286565b91505092915050565b7f4e487b7100000000000000000000000000000000000000000000000000000000600052601160045260246000fd5b600061130282610ba7565b915061130d83610ba7565b9250828203905081811115611325576113246112c8565b5b92915050565b7f4e487b7100000000000000000000000000000000000000000000000000000000600052603260045260246000fd5b7f4e487b7100000000000000000000000000000000000000000000000000000000600052601260045260246000fd5b600061139482610ba7565b915061139f83610ba7565b9250826113af576113ae61135a565b5b828206905092915050565b600081905092915050565b50565b60006113d56000836113ba565b91506113e0826113c5565b600082019050919050565b60006113f6826113c8565b915081905091905056fea26469706673582212208d0e029211ec7c76ff0d78f8b0d53500fceda4ce30624b428829fefe29e63df764736f6c63430008110033",
  "devdoc": {
    "author": "Mohamed Elbalshy",
    "details": "This implements Chainlink VrfConsumerV2 and Chainlink Automation Keepers",
    "kind": "dev",
    "methods": {},
    "title": "A Simple Raffle Contract",
    "version": 1
  },
  "userdoc": {
    "kind": "user",
    "methods": {},
    "notice": "This contract is for learning purpose",
    "version": 1
  },
  "storageLayout": {
    "storage": [
      {
        "astId": 205,
        "contract": "contracts/Raffle.sol:Raffle",
        "label": "s_players",
        "offset": 0,
        "slot": "0",
        "type": "t_array(t_address_payable)dyn_storage"
      },
      {
        "astId": 209,
        "contract": "contracts/Raffle.sol:Raffle",
        "label": "s_lastTimeStamp",
        "offset": 0,
        "slot": "1",
        "type": "t_uint256"
      },
      {
        "astId": 216,
        "contract": "contracts/Raffle.sol:Raffle",
        "label": "s_vrfCoordinatorV2",
        "offset": 0,
        "slot": "2",
        "type": "t_contract(VRFCoordinatorV2Interface)172"
      },
      {
        "astId": 226,
        "contract": "contracts/Raffle.sol:Raffle",
        "label": "s_recentWinner",
        "offset": 0,
        "slot": "3",
        "type": "t_address"
      },
      {
        "astId": 229,
        "contract": "contracts/Raffle.sol:Raffle",
        "label": "s_raffleState",
        "offset": 20,
        "slot": "3",
        "type": "t_enum(RaffleState)200"
      }
    ],
    "types": {
      "t_address": {
        "encoding": "inplace",
        "label": "address",
        "numberOfBytes": "20"
      },
      "t_address_payable": {
        "encoding": "inplace",
        "label": "address payable",
        "numberOfBytes": "20"
      },
      "t_array(t_address_payable)dyn_storage": {
        "base": "t_address_payable",
        "encoding": "dynamic_array",
        "label": "address payable[]",
        "numberOfBytes": "32"
      },
      "t_contract(VRFCoordinatorV2Interface)172": {
        "encoding": "inplace",
        "label": "contract VRFCoordinatorV2Interface",
        "numberOfBytes": "20"
      },
      "t_enum(RaffleState)200": {
        "encoding": "inplace",
        "label": "enum Raffle.RaffleState",
        "numberOfBytes": "1"
      },
      "t_uint256": {
        "encoding": "inplace",
        "label": "uint256",
        "numberOfBytes": "32"
      }
    }
  }
}